:020000009E2B35
:10000800FF00030E8301BD000A08BE008A017008C4
:10001800A2007108A10093237008BC000130B90048
:100028000030BA007008613A031D1B2807153C0808
:10003800623A031D202807113C08633A031D25284E
:1000480007163C08643A031D2A2807122208F00004
:100058002108F1003E088A003D0E8300FF0E7F0E46
:0200680009008D
:10006A00103083120313FD00FD0B3928000008002D
:04007A00000008007A
:10007E00083083120313FC002330FD00FD0B4528CE
:06008E00FC0B45280800F0
:100094007B15FB1F54280130F300F201F101F0013C
:0800A400FA0DF20CFF30080018
:1000AC0083120313D81B5C2886115D288615581BF8
:1000BC006128061162280615D81A6628861067284A
:1000CC008614581A6B2806106C2806143B187028D6
:1000DC0006167128061286163D208612D819782825
:1000EC0086117928861558197D2806117E28061543
:1000FC00D81882288610832886145818872806104A
:10010C00882806143B188C2806168D28061286168D
:10011C003D2086123B1C94283F2095283520080052
:0E012C00F201F101F001F801F30100300800CA
:08013A00FA1FF2130030080067
:10014200710DF80DF90D7408F8027508031C750F8E
:10015200F902F00DF10D0F30FC00710DF80DF90DE3
:100162007408701CBA28F8027508031C750FF9028E
:10017200BF28F80775080318750FF907F00DF10D80
:10018200FC0BAE287018CB287408F8077508031802
:08019200750FF90700000800D9
:10019A00831203133B105708D80056203B1408005B
:1001AA00A0017208031DEA287108F2007008F10024
:1001BA00F001A0157208031DEA287108F200F10186
:1001CA00A011201672080319F8282008F302031D4B
:1001DA00031CFC280310F21B0029F00DF10DF20D8F
:1001EA00F30BF028FC280130FC009620032902308A
:0E01FA00FC004A2003290430FC009D20080070
:100208007B14FB1F0F29F201FA1FFF30F200F100E7
:0A021800F000FA0DF20CFF300800B0
:0E022200073083120313FD00FD0B15290800A1
:0E0230008312031338088A0037088200080082
:10023E00FB14FB1F2929FF30F300F200F100F00040
:08024E00FA0DF20CFF3008006C
:1002560083120313FB017308031968297208FA0055
:10026600F2178E30F302F31F6B29F309F30A0830F5
:100276007302031C4E29F300F10D7208F100F2011E
:1002860008307302031C4E29F300F10DF1017308C7
:10029600031D031056297308031956290310F20C7F
:1002A600F10CF30B51297B1B711C6029031C60297F
:1002B600F10A0319F20AF21B7729FA1F7A29F209C1
:1002C600F109F10A0319F20A7A29F201F1017A29F0
:1002D6007B14FB1F7D29F201FA1F7D29FF30F200F6
:1002E600F100FA0DF20C7D290130FC007F29003067
:1002F600FC007F29FF30FC00FC0803198329042138
:0A0306007108F0007208F100080011
:10031000831203137008F8007108F000F101F20174
:10032000F301FB01FC019630F300FA01F01F9E2956
:10033000F809F009F80A0319F00AFA177008F10031
:0C0340007808F000F801F201D520080058
:10034C0083120313FB017308031D77080319FD299E
:10035C0072087606FA007708F3077E30031CBA2978
:10036C00F3020318002ABD29F302031C032A7208A6
:10037C00F8007108FC007008FD00F817F617031060
:10038C00F201F101F0011830A0007D1CD72974088E
:10039C00F00775080318750FF10776080318760F28
:1003AC00F207F20CF10CF00CF80CFC0CFD0C031029
:1003BC00A00BCB29F21BE729F80DF00DF10DF20D76
:1003CC00F3037B1B701CF929F81FF929F00A031998
:1003DC00F10A0319F20A031DF929F20CF10CF00CC5
:1003EC00F30A0319002AFA1FF2130030052A013010
:1003FC009620052A02301F21052A04304A200000CD
:02040C000800E6
:10040E00831203137408003A031D162A7508003A66
:10041E00031D162AFF30F0007F30F1006F2A831281
:10042E000313FD01F901F80171087004031900347A
:10043E0071087506FA00FA1BFD09FB01F51F2C2A3F
:10044E00F409F509F40A0319F50AF11F332AF00924
:10045E00F109F00A0319F10A71087504FA00FA1B82
:10046E00482AA1207B185B2AFD1F0034F009F109F0
:10047E00F00A0319F10AF809F909F80A0319F90A39
:10048E000034F51F572AF11B532A7108F900700822
:10049E00F800F101F0013B2AF101F001F00A0034FD
:1004AE00F109F009FB0A382AF80A0319F90A740847
:1004BE007802031D3B2A75087902031D3B2AF901B8
:1004CE00F801F00A0319F10AF11F3B2A0000FF346C
:0204DE00080014
:1004E000822A803083120313D300952AC030D300B0
:1004F000952A9430D300952AD430D300952A8030A1
:10050000D300952A831203135308013A0319712A61
:100510005308023A0319762A5308033A0319792A31
:100520005308043A03197C2A7F2A5403F000530825
:10053000F0077008D3007008D80056203B10D60191
:1005400056085507840000080319AE2A56085507B7
:1005500084000008D700CD20D60AA02A3B1408004A
:10056000831203137008F8007108F000F101F20122
:10057000F301FB01FC019630F300FA017008F10071
:0C0580007808F000F801F201D520080016
:10058C00D82A803083120313D300EB2AC030D30057
:10059C00EB2A9430D300EB2AD430D300EB2A8030F2
:1005AC00D300EB2A831203135308013A0319C72A09
:1005BC005308023A0319CC2A5308033A0319CF2AD9
:1005CC005308043A0319D22AD52A5403F0005308CD
:1005DC00F0077008D3003B147008D80056203B106D
:0A05EC005508D80056203B14080003
:1005F60018218A110A128000840AB70A0319B80A58
:08060600F003031DFB2A0800AC
:10060E00831203139F01C0309F0483161F179F1779
:10061E0083125308F000F00D7010F00D7010F00DF5
:10062E00701070089F041F1411211F151F1D212B00
:10063E0000001D2B1F101E08F100F00183161E086E
:08064E00F0040030F104080083
:10065600831603139818312B00002B2B8312530893
:0406660099000800EF
:10066A0083160313981690308312980083168717FF
:10067A00071383128C1E442B1A08F0003E2B080025
:10068A0083160313861206120610861006118611A7
:10069A0083128612061286110611861006103F2052
:1006AA003F203F208614061486163D2086123F20DE
:1006BA0086163D2086123F2086163D2086123F2050
:1006CA00061086163D2086123F2086163D20861289
:1006DA008610861586163D2086123F20861106143E
:1006EA0086163D208612061086163D2086123F2069
:1006FA0086163D208612061486163D2086123F2055
:10070A00061086163D2086128615061586140614CE
:0C071A0086163D2086123F203B1408008C
:10072600831203131A08F100981C9B2B1812181633
:060736007108F00008004C
:10073C004C3083120313A3006930A4006730A5006A
:10074C006830A6007430A7002030A800A9015430EE
:10075C00AA006530AB006D30AC007030AD002030BD
:10076C00AE00AF016130B0006C30B1006130B2004E
:10077C007230B3006D30B4002030B500B601C90141
:10078C00CA01C0308B00203083168C0045231930F1
:10079C0083169900181535230C30D80056200811F3
:1007AC00A03083168700003083124A06031DE02B0D
:1007BC0000304906031DF02CD30107237008831267
:1007CC00BF007108C0000230D300072370088312E9
:1007DC00C1007108C2000130D3000723B0220A30D7
:1007EC00F400D730F5002330F6007730F700A6215F
:1007FC002B217008C3007108C4003F08F0004008AA
:10080C00F10088219030F4003E30F5007A30F6008B
:10081C007D30F700A6212B217008C5007108C60099
:10082C000A30F4000030F50007227808F00079084F
:10083C00F1007008CB007108CC000A30F4000030D5
:10084C00F5004508F0004608F10007227008CD00BD
:10085C007108CE000130D3000130D4002A30D5000D
:10086C0070220130D3000730D40030304D07D50052
:10087C00C6220130D3000830D40030304B07D500ED
:10088C00C6228030F000803046067002031D502CCA
:10089C004508193C0318532C071480304606F00009
:1008AC0080307002031D5C2C1730450203185F2C3E
:1008BC0007104108F0004208F1008821CD30F40007
:1008CC00CC30F5004C30F6007A30F700A6212B2105
:1008DC007008C7007108C8007008F2007108F300B6
:1008EC00F20DF30D72107208C7007308C80072087D
:1008FC00F0007308F1000A30F4000030F500072214
:10090C007808F0007908F1007008CF007108D00069
:10091C000A30F4000030F5004708F0004808F100F8
:10092C0007227008D1007108D2000230D3000130C8
:10093C00D4002330D50070220230D3000730D4000D
:10094C0030305107D500C6220230D3000830D40015
:10095C0030304F07D500C6220230D3000930D40006
:10096C002530D500C6228030F00080304806700259
:10097C00031DC22C4708323C0318C62C8711C72C08
:10098C0087154508D3002B236B30D3002B23470846
:10099C00D3002B230230FB000430FC00BA30FD00E6
:1009AC00FD0BD62CFC0BD62CFB0BD62C0000803070
:1009BC004406F00080307002031DE62C0230430226
:1009CC000318EF2C0130C9000030CA000130D800E8
:1009DC005620FD2C0130D3000130D4003030D5002E
:1009EC0070228714871AFD2CC901CA018710D92BD4
:0209FC00FE2CCF
:02400E004A2F37
:00000001FF
