:02000000612A73
:10000800FF00030E8301AD000A08AC008A017008E6
:10001800A1007108A00056227008A7000130A200B4
:100028000030A3002108F0002008F1002C088A0005
:0A0038002D0E8300FF0E7F0E09005D
:10004200103083120313FD00FD0B25280000080069
:0400520000000800A2
:10005600083083120313FC002330FD00FD0B31280A
:06006600FC0B312808002C
:10006C0083120313C31B3C2886113D288615431BA2
:10007C004128061142280615C31A4628861047281F
:10008C008614431A4B2806104C28061426185028A0
:10009C00061651280612861629208612C3195828CE
:1000AC0086115928861543195D2806115E280615F8
:1000BC00C318622886106328861443186728061014
:1000CC006828061426186C2806166D280612861643
:1000DC0029208612261C74282B2075282120080024
:1000EC0083120313F801F9011030FC00710DF80DA7
:1000FC00F90D7408F8027508031C750FF902031842
:10010C008E287408F80775080318750FF907031083
:0A011C00F00DF10DFC0B7C2808002B
:0E012600073083120313FD00FD0B972808001D
:1001340083120313C101053041020318A8284108A2
:100144004007840020308000C10A9D2841084007F0
:1001540084008001C10341084007C2000A30F40052
:10016400F5013E08F0003F08F10076207808F00021
:100174007908F1003030F0074208840070088000EC
:100184000A30F400F5013E08F0003F08F100762043
:100194007008BE007108BF0000307106031DD4282A
:1001A40000307006031DD728D928C103AD280800E4
:0E01B400831203132B088A002A088200080019
:1001C2008312031326103E08C300362026140800AB
:1001D200FB28803083120313B5000E29C030B5000E
:1001E2000E299430B5000E29D430B5000E29803086
:1001F200B5000E29831203133508013A0319EA28C0
:100202003508023A0319EF283508033A0319F22890
:100212003508043A0319F528F8283603F0003508A2
:10022200F0077008B5007008C30036202610B80128
:1002320038083707840000080319272938083707C8
:1002420084000008BE00E120B80A1929261408001B
:1002520083120313BA01BB013508BC003608BD0086
:1002620080303606F00080307002031D3A290030DB
:100272003502031848290130BA000030BB003508A6
:10028200003CBC003608031C013EBD01BD023C0817
:10029200BE003D08BF003708C0009A200630B800F3
:1002A2000030B9003908003C031D59293808003CC8
:1002B2000318742938083707F20001303802F000B9
:1002C2000030031C013E3902F10070083707840038
:1002D2000008F00072088400700880000130B80243
:1002E200031CB903532937088400203080003A08E0
:1002F2003B0403199229B801B90138083707840071
:100302000008203A031D8929B80A0319B90A7E296F
:100312000130B802031CB9033808370784002D30B6
:04032200800008004F
:10032600831203139F01C0309F0483161F179F1764
:1003360083123508F000F00D7010F00D7010F00DFE
:10034600701070089F041F1493201F151F1DAD29E0
:100356000000A9291F101E08F100F00183161E08CF
:08036600F0040030F10408006E
:10036E0083160313981690308312980083168717FE
:10037E00071383128C1EC6291A08F000C029080024
:10038E0083160313861206120610861006118611A6
:10039E0083128612061286110611861006102B2065
:1003AE002B202B20861406148616292086122B202D
:1003BE008616292086122B208616292086122B209F
:1003CE0006108616292086122B20861629208612C4
:1003DE00861086158616292086122B208611061465
:1003EE0086162920861206108616292086122B20A4
:1003FE0086162920861206148616292086122B2090
:10040E0006108616292086128615061586140614E1
:0C041E008616292086122B2026140800C8
:10042A00DA208A110A128000840AAA0A0319AB0A7E
:08043A00F003031D152A080060
:10044200332A803083120313B500462AC030B50028
:10045200462A9430B500462AD430B500462A803068
:10046200B500462A831203133508013A0319222ADA
:100472003508023A0319272A3508033A03192A2AAA
:100482003508043A03192D2A302A3603F0003508BC
:10049200F0077008B50026147008C3003620261035
:0A04A2003708C300362026140800B6
:1004AC00831203131A08F100981C5E2A18121816EE
:0604BC007108F0000800C9
:1004C20083120313A201A301C721C0308B00203085
:1004D20083168C00673099001815B7210230FB0093
:1004E2008630FC009930FD00FD0B752AFC0B752A45
:1004F200FB0B752A803083168700FF3088000C3092
:100502008312C30036200230B50093217008831293
:10051200A8007108A9002408F00725080318013E65
:10052200F1077008A4007108A5007008B5007108F1
:10053200B6002E30B70029210230B5000130B600D6
:100542002E30B700E92000302306031DAA2A01300D
:100552002206031DB52A0130B5000130B600270876
:0C056200B7002122A201A301842AB62ABE
:02400E004A2F37
:00000001FF
