:02000000A32833
:0E0006008312031321088A00200882000800DC
:1000140083120313FB01FA01F9018030F800F10C9B
:10002400F00C031C1E287408F90775080318750FD3
:10003400FA070318FB0A0310F01F26287408FA07AE
:1000440075080318750FFB07FB0CFA0CF90CF80C78
:10005400031C11287B08F3007A08F2007908F100E8
:060064007808F00008001E
:0C006A008312031395011712971208006F
:1000760083160313981690308312980083168614FD
:10008600061183128C1E4A281A08F000442808001C
:10009600831603131208013EF000F1010318F10A5A
:1000A60083122208F400F5010A200630F2007008D7
:1000B600F4007108F500720803196628F50CF40CB3
:1000C600F513FF3E5F280430F1007408F000710854
:1000D60003197128F00D7010FF3E6B283030700543
:1000E600F3007408F0007508F100F10CF00CF11340
:1000F600F10CF00CF113700895000F30970573089A
:040106009704080052
:10010A008316031398188B28000085288312220867
:04011A009900080040
:10011E0003208A110A128000840AA00A0319A10A78
:08012E00F003031D8F280800F7
:10013600831603138611831212150C3097040800D8
:10014600FB308316031386006730990018153B2091
:100156001210921020308316920035207F30A200B4
:100166004B209B200618BA286130A200852006186D
:10017600BD28BA28061AC2286130A2008520061AB0
:10018600C528C228861ACA286230A2008520861A87
:10019600CD28CA28061BD2286330A2008520061B5C
:0801A600D528D228B528D6287F
:02400E006A2125
:00000001FF
