:02000000A52831
:0E0006008312031321088A00200882000800DC
:1000140083120313FB01FA01F9018030F800F10C9B
:10002400F00C031C1E287408F90775080318750FD3
:10003400FA070318FB0A0310F01F26287408FA07AE
:1000440075080318750FFB07FB0CFA0CF90CF80C78
:10005400031C11287B08F3007A08F2007908F100E8
:060064007808F00008001E
:10006A00831603130711831212150C309704080024
:0C007A008312031395011712971208005F
:10008600831603131208013EF000F1010318F10A6A
:1000960083122208F400F5010A200630F2007008E7
:1000A600F4007108F500720803195E28F50CF40CCB
:1000B600F513FF3E57280430F1007408F00071086C
:1000C60003196928F00D7010FF3E6328831203138D
:1000D60030307005F3007408F0007508F100F10C7B
:1000E600F00CF113F10CF00CF113700895000F30C1
:0800F600970573089704080048
:1000FE00831603139818852800007F288312220880
:04010E00990008004C
:1001120003208A110A128000840AA00A0319A10A84
:08012200F003031D8928080009
:10012A008316031398169030831298008316871744
:10013A00071383128C1EA4281A08F0009E280800B0
:10014A0083120313121092101930831692003D2065
:10015A007F30A20043203520FF30831688001930F3
:10016A009900181595200818C9286130A2007F2027
:10017A000230FB008630FC009930FD00FD0BC328DD
:0C018A00FC0BC328FB0BC328B828CA28B4
:02400E004A2F37
:00000001FF
