:02000000042CCE
:10000800FF00030E8301E0000A08E1008A0170087E
:10001800A2007108A100F9237008DE007008613A97
:10002800031D172807155E08623A031D1C280711CF
:100038005E08633A031D212807165E08643A031D0B
:10004800262807122208F0002108F10061088A001A
:0A005800600E8300FF0E7F0E09000A
:040062000000080092
:10006600083083120313FC002330FD00FD0B3928F2
:06007600FC0B3928080014
:10007C00103083120313FD00FD0B42280000080012
:08008C00FA1FF2130030080016
:100094007B15FB1F54280130F300F201F101F0013C
:0800A400FA0DF20CFF30080018
:0E00AC00F201F101F001F801F301003008004B
:1000BA0083160313BC1B64288312861166288312D5
:1000CA00861583163C1B6C28831206116E28831230
:1000DA0006158316BC1A7428831286107628831292
:1000EA00861483163C1A7C28831206107E288312F3
:1000FA0006145F18822806168328061286163120EF
:10010A0086128316BC198C28831286118E288312B4
:10011A00861583163C199428831206119628831291
:10012A0006158316BC189C28831286109E288312F3
:10013A00861483163C18A42883120610A628831254
:10014A0006145F18AA280616AB280612861631204E
:0E015A0086125F1CB2283320B3283E20080016
:10016800710DF80DF90D7408F8027508031C750F68
:10017800F902F00DF10D0F30FC00710DF80DF90DBD
:100188007408701CCD28F8027508031C750FF90255
:10019800D228F80775080318750FF907F00DF10D47
:1001A800FC0BC1287018DE287408F80775080318B6
:0801B800750FF90700000800B3
:1001C000831203135F1083163708BC005D205F1491
:0201D000080025
:0E01D200073083120313FD00FD0BED2808001B
:0E01E000033083120313FD00FD0BF42808000A
:0E01EE00831203135D088A005C08820008007B
:1001FC00FB14FB1F0829FF30F300F200F100F000A4
:08020C00FA0DF20CFF300800AE
:1002140083160313B701B901BA011030BB000430CF
:100224003A0203183829F0308312880083163B09F8
:100234008800312031200F3083120805F000700847
:100244008316B8007008031932293908B700380832
:1002540003193029B80CB813B70A29290430BA0095
:10026400BB0D3B100430B907BA0A11293708F00056
:02027400080080
:100276007B14FB1F4629F201FA1FFF30F200F10042
:0A028600F000FA0DF20CFF30080042
:10029000A0017208031D5D297108F2007008F100C9
:1002A000F001A0157208031D5D297108F200F1012B
:1002B000A0112016720803196B292008F302031DF0
:1002C000031C6F290310F21B7329F00DF10DF20DC1
:1002D000F30B63296F290130FC0056207629023088
:0E02E000FC004A2076290430FC00462008006D
:1002EE00831203137408003A031D86297508003A19
:1002FE00031D8629FF30F0007F30F100DF298312C5
:10030E000313FD01F901F80171087004031900349B
:10031E0071087506FA00FA1BFD09FB01F51F9C29F1
:10032E00F409F509F40A0319F50AF11FA329F009D6
:10033E00F109F00A0319F10A71087504FA00FA1BA3
:10034E00B829B4207B18CB29FD1F0034F009F10920
:10035E00F00A0319F10AF809F909F80A0319F90A5A
:10036E000034F51FC729F11BC3297108F900700865
:10037E00F800F101F001AB29F101F001F00A0034AF
:10038E00F109F009FB0AA829F80A0319F90A7408F9
:10039E007802031DAB2975087902031DAB29F901FB
:1003AE00F801F00A0319F10AF11FAB290000FF341E
:0203BE00080035
:1003C000831603139818E6290000E02933088312E6
:0403D0009900080088
:1003D400FC29803083160313B3000F2AC030B30006
:1003E4000F2A9430B3000F2AD430B3000F2A803080
:1003F400B3000F2A831603133308013A0319EB29B8
:100404003308023A0319F0293308033A0319F3298C
:100414003308043A0319F629F9293403F0003308A0
:10042400F0077008B3007008BC005D205F108316ED
:10043400B601360835078400000803192A2A36084D
:10044400350784000008B700E0208316B60A1B2A8B
:0604540083125F14080092
:10045A0083120313FB01730803196A2A7208FA004C
:10046A00F2178E30F302F31F6D2AF309F30A0830EC
:10047A007302031C502AF300F10D7208F100F20115
:10048A0008307302031C502AF300F10DF1017308BE
:10049A00031D0310582A73080319582A0310F20C73
:1004AA00F10CF30B532A7B1B711C622A031C622A70
:1004BA00F10A0319F20AF21B792AFA1F7C2AF209B5
:1004CA00F109F10A0319F20A7C2AF201F1017C2AE4
:1004DA007B14FB1F7F2AF201FA1F7F2AFF30F200EA
:1004EA00F100FA0DF20C7F2A0130FC00812A00305B
:1004FA00FC00812AFF30FC00FC080319852A3B21F5
:0A050A007108F0007208F10008000B
:100514000A217008B3000F3083120805F000031994
:0E052400952AF0208D2A83163308F000080077
:10053200AB2A803083160313B300BE2AC030B30047
:10054200BE2A9430B300BE2AD430B300BE2A803013
:10055200B300BE2A831603133308013A03199A2AF9
:100562003308023A03199F2A3308033A0319A22ACD
:100572003308043A0319A52AA82A3403F0003308E1
:10058200F0077008B30083125F1470088316BC0072
:100592005D205F1083163508BC005D205F140800E3
:1005A20083120313FB017308031D77080319282B19
:1005B20072087606FA007708F3077E30031CE52AF4
:1005C200F30203182B2BE82AF302031C2E2B7208CA
:1005D200F8007108FC007008FD00F817F617031008
:1005E200F201F101F0011830A0007D1C022B740809
:1005F200F00775080318750FF10776080318760FD0
:10060200F207F20CF10CF00CF80CFC0CFD0C0310D0
:10061200A00BF62AF21B122BF80DF00DF10DF20DC4
:10062200F3037B1B701C242BF81F242BF00A0319E5
:10063200F10A0319F20A031D242BF20CF10CF00C3F
:10064200F30A03192B2BFA1FF2130030302B01305F
:100652005620302B0230FE20302B04304A2000007E
:0206620008008E
:100664008316031398169030831298008316871705
:10067400071383128C1E412B1A08F0003B2B080031
:10068400F7208A110A128000840ADC0A0319DD0AA1
:08069400F003031D422B0800D6
:0A069C00FF308316031388000800E6
:1006A600831203139F01C0309F0483161F179F17E1
:1006B6003308F000F00D7010F00D7010F00D701092
:1006C600700883129F041F14E9201F151F1D6D2B30
:1006D6000000692B1F101E08F100F00183161E088A
:0806E600F0040030F1040800EB
:1006EE00831203137008F8007108F000F101F20193
:1006FE00F301FB01FC019630F300FA01F01F8D2B84
:10070E00F809F009F80A0319F00AFA177008F1004F
:0C071E007808F000F801F2014821080002
:10072A008316031386120612061086100611861106
:10073A0083128612061286110611861006103320BD
:10074A00332033208614061486163120861233206D
:10075A0086163120861233208616312086123320DF
:10076A00061086163120861233208616312086120C
:10077A0086108615861631208612332086110614B5
:10078A0086163120861206108616312086123320EC
:10079A0086163120861206148616312086123320D8
:1007AA00061086163120861286150615861406143A
:0C07BA0086163120861233205F140800E0
:1007C600831203137008F8007108F000F101F201BA
:1007D600F301FB01FC019630F300FA017008F10009
:0C07E6007808F000F801F201482108003A
:1007F200831203131A08F100981C012C1812181600
:060802007108F00008007F
:10080800C82683160313B001B101B201AE01AF01CE
:10081800AA01AB01AC01AD0102309F00890183122E
:1008280089010130EA000030EB000230EC000030B2
:10083800ED000330EE000030EF00C0308B002030B8
:1008480083168C004E2395231930831699001815AA
:1008580032230C308316BC005D2001308316BC00A7
:100868005D20A0308316870083128701003083162D
:100878003206031D412C00303106031D672D8316F7
:100888003008031D672D0130B3005323E3230A30DA
:10089800F400D730F5002330F6007730F700D12286
:1008A8002D2270088316A0007108A1008A22700802
:1008B800B0007008003A0319692C0130B300013008
:1008C800B40030303007B500992283163008013A59
:1008D800031D752C0130AE000030AF000130B000B0
:1008E8003D2D3008023A031D802C0130AA0000304B
:1008F800AB000230B0003D2D3008033A031D8B2CAD
:100908000130AC000030AD000330B0003D2D3008A0
:10091800053A031D922C0430B0003D2D3008063AEC
:10092800031D992C0530B0003D2D3008073A031DF2
:10093800A02C0630B0003D2D3008093A031DA72C25
:100948000730B0003D2D30080A3A031DAE2C0830A0
:10095800B0003D2D30080B3A031DB52C0930B0000E
:100968003D2D30080E3A031DC22CB0010230B300F1
:100978000130B4003030B50099223D2D831630087F
:10098800043A031DCA2C1130B0003D2D3008083A36
:10099800031DD12C1230B0003D2D30080C3A031D38
:1009A800D82C1330B0003D2D3008103A031D2F2DE0
:1009B80000302F06031DE22C01302E06031D142DD6
:1009C80000302B06031DEA2C01302A06031D142DC6
:1009D80000302D06031DF22C01302C06031D142DAA
:1009E8000130B3000130B4004430B500EA210B30C7
:1009F800FB002630FC005D30FD00FD0B012DFC0BDB
:100A0800012DFB0B012D0000000014308316B000EF
:100A18000130B1000030B2000730831289002A2D5E
:100A280001308316B3000130B4002A30B500EA2142
:100A38000B30FB002630FC005D30FD00FD0B222D45
:100A4800FC0B222DFB0B222D000000000130831629
:100A5800BC005D203D2D831630080D3A031D372D4F
:100A6800FA30B0003D2D30080F3A031D3D2DF3300C
:100A7800B000831600303206031D442D00303106C5
:100A8800031D472DB0018030F00080302106700230
:100A9800031D502D2008023C03185A2D0230B300C4
:100AA8000130B4002330B500EA2187148312871A75
:100AB800662D02308316B3000130B4005430B500FF
:100AC800EA218710432C003083163206031D6E2D51
:100AD80001303106031D882EB30153237008A2008C
:100AE8007108A3000230B30053237008A4007108F2
:100AF800A5000130B3005323E3230A30F400D730B4
:100B0800F5002330F6007730F700D1222D22700847
:100B18008316A0007108A1002208F0002308F10044
:100B280077239030F4003E30F5007A30F6007D30BF
:100B3800F700D1222D2270088316A6007108A7009D
:100B48000A30F4000030F50077217808F0007908C1
:100B5800F1007008E2007108E3000A30F400003088
:100B6800F50083162608F0002708F10077217008A1
:100B7800E4007108E50001308316B3000130B400C9
:100B88003E30B500EA2101308316B3000730B400C7
:100B98003030831264078316B5009922013083161A
:100BA800B3000830B4003030831262078316B500F2
:100BB80099228030F0008030831627067002031DCA
:100BC800E72D2608193C0318EB2D831207148030F3
:100BD80083162706F00080307002031DF52D1730AC
:100BE80026020318F92D8312071083162408F00033
:100BF8002508F1007723CD30F400CC30F5004C30D7
:100C0800F6007A30F700D1222D2270088316A8004A
:100C18007108A9007008F2007108F300F20DF30DD5
:100C280072107208A8007308A9007208F00073080F
:100C3800F1000A30F4000030F50077217808F00060
:100C48007908F1007008E6007108E7000A30F4003E
:100C58000030F50083162808F0002908F1007721F4
:100C68007008E8007108E90002308316B30001300B
:100C7800B4003730B500EA2102308316B3000730DC
:100C8800B4003030831268078316B5009922023009
:100C98008316B3000830B400303083126607831619
:100CA800B500992202308316B3000930B40025300C
:100CB800B50099228030F000803083162906700232
:100CC800031D682E2808323C03186D2E83128711E5
:100CD8006F2E8312871583162608B300E0216B3028
:100CE8008316B300E02183162808B300E021023000
:100CF800FB000430FC00BA30FD00FD0B812EFC0B1C
:0C0D0800812EFB0B812E00003A2C892E5E
:100D900023308400393083120313F0008F30DC00DD
:080DA0000630DD0042230800CB
:0E0D1E0061346C34613472346D34203400342E
:100D2C0075346E34763461346C3469346434203404
:0A0D3C005034413453345334003472
:0E0D46004C346934673468347434203400341B
:0C0D5400543465346D34703420340034A5
:100D6000763461346C346934643420345034413422
:100D7000533453342034203420342034203400348D
:100D800020342034203420342034203420340034E3
:02400E004A2F37
:00000001FF
