:02000000F628E0
:10000800FF00030E8301A7000A08A6008A017008F2
:10001800A000EB207008A3000130A1000030A2006E
:100028002008F00026088A00270E8300FF0E7F0EA6
:020038000900BD
:10003A00103083120313FD00FD0B21280000080075
:10004A00083083120313FC002330FD00FD0B2B281C
:06005A00FC0B2B2808003E
:040060000000080094
:1000640083120313AA1B38288611392886152A1BE4
:100074003D2806113E280615AA1A42288610432850
:1000840086142A1A472806104828061428184C28CB
:1000940006164D280612861630208612AA195428F0
:1000A4008611552886152A19592806115A28061525
:1000B400AA185E2886105F2886142A18632806105A
:1000C4006428061428186828061669280612861655
:1000D40030208612281C7028252071281D20080035
:0E00E4008312031325088A00240882000800F6
:1000F2008312031328102908AA00322028140800AA
:10010200831603139816903083129800831687176C
:10011200071383128C1E90281A08F0008A28080000
:1001220072208A110A128000840AA40A0319A50AFD
:08013200F003031D91280800F1
:10013A0083160313861206120610861006118611FC
:10014A0083128612061286110611861006102520C1
:10015A00252025208614061486163020861225208E
:10016A0086163020861225208616302086122520F3
:10017A000610861630208612252086163020861212
:10018A0086108615861630208612252086110614BA
:10019A0086163020861206108616302086122520F2
:1001AA0086163020861206148616302086122520DE
:1001BA000610861630208612861506158614061431
:0C01CA008616302086122520281408001C
:1001D600831203131A08F100981CF3281812181634
:0601E6007108F0000800A2
:1001EC0083120313A101A2019D20C0308B0020308B
:1001FC0083168C0067309900181581200230FB00A3
:10020C008630FC009930FD00FD0B0A29FC0B0A29F5
:10021C00FB0B0A2980308316870088018312880122
:10022C0000302206031D1C2901302106031D2F2935
:10023C002308A9007920A101A2012308613A031D1A
:10024C002929081408152308353A031D2F290810ED
:06025C00081116293029EB
:02400E004A2F37
:00000001FF
